S0120000496E74657272757074732E73726563D2
S11300000C9436000C9440000C9440000C94420074
S11300100C9440000C9440000C9440000C9440005C
S11300200C9440000C9440000C9440000C9440004C
S11300300C9440000C9440000C9440000C9440003C
S11300400C9440000C9440000C9440000C9440002C
S11300500C9440000C9440000C9440000C9440001C
S11300600C9440000C9440000C94400011241FBEDA
S1130070CFEFD4E0DEBFCDBF0E9462000C946500D8
S11300800C9400001F920F920FB60F9211248F93BD
S11300909F9395B180E2892785B99F918F910F90A5
S11300A00FBE0F901F901895EBE6F0E080818068FA
S11300B08083E8E6F0E0808181608083789480E248
S11100C084B908950E945400FFCFF894FFCF36
S9030000FC
